{
  "address": "0xF5aA8e3C6BA1EdF766E197a0bCD5844Fd1ed8A27",
  "abi": [
    {
      "inputs": [
        {
          "internalType": "address",
          "name": "botAddress",
          "type": "address"
        },
        {
          "internalType": "string",
          "name": "name",
          "type": "string"
        },
        {
          "internalType": "string",
          "name": "symbol",
          "type": "string"
        },
        {
          "internalType": "string",
          "name": "baseTokenURI",
          "type": "string"
        }
      ],
      "stateMutability": "nonpayable",
      "type": "constructor"
    },
    {
      "anonymous": false,
      "inputs": [
        {
          "indexed": true,
          "internalType": "address",
          "name": "owner",
          "type": "address"
        },
        {
          "indexed": true,
          "internalType": "address",
          "name": "approved",
          "type": "address"
        },
        {
          "indexed": true,
          "internalType": "uint256",
          "name": "tokenId",
          "type": "uint256"
        }
      ],
      "name": "Approval",
      "type": "event"
    },
    {
      "anonymous": false,
      "inputs": [
        {
          "indexed": true,
          "internalType": "address",
          "name": "owner",
          "type": "address"
        },
        {
          "indexed": true,
          "internalType": "address",
          "name": "operator",
          "type": "address"
        },
        {
          "indexed": false,
          "internalType": "bool",
          "name": "approved",
          "type": "bool"
        }
      ],
      "name": "ApprovalForAll",
      "type": "event"
    },
    {
      "anonymous": false,
      "inputs": [
        {
          "indexed": true,
          "internalType": "address",
          "name": "previousOwner",
          "type": "address"
        },
        {
          "indexed": true,
          "internalType": "address",
          "name": "newOwner",
          "type": "address"
        }
      ],
      "name": "OwnershipTransferred",
      "type": "event"
    },
    {
      "anonymous": false,
      "inputs": [
        {
          "indexed": false,
          "internalType": "address",
          "name": "account",
          "type": "address"
        }
      ],
      "name": "Paused",
      "type": "event"
    },
    {
      "anonymous": false,
      "inputs": [
        {
          "indexed": true,
          "internalType": "bytes32",
          "name": "role",
          "type": "bytes32"
        },
        {
          "indexed": true,
          "internalType": "bytes32",
          "name": "previousAdminRole",
          "type": "bytes32"
        },
        {
          "indexed": true,
          "internalType": "bytes32",
          "name": "newAdminRole",
          "type": "bytes32"
        }
      ],
      "name": "RoleAdminChanged",
      "type": "event"
    },
    {
      "anonymous": false,
      "inputs": [
        {
          "indexed": true,
          "internalType": "bytes32",
          "name": "role",
          "type": "bytes32"
        },
        {
          "indexed": true,
          "internalType": "address",
          "name": "account",
          "type": "address"
        },
        {
          "indexed": true,
          "internalType": "address",
          "name": "sender",
          "type": "address"
        }
      ],
      "name": "RoleGranted",
      "type": "event"
    },
    {
      "anonymous": false,
      "inputs": [
        {
          "indexed": true,
          "internalType": "bytes32",
          "name": "role",
          "type": "bytes32"
        },
        {
          "indexed": true,
          "internalType": "address",
          "name": "account",
          "type": "address"
        },
        {
          "indexed": true,
          "internalType": "address",
          "name": "sender",
          "type": "address"
        }
      ],
      "name": "RoleRevoked",
      "type": "event"
    },
    {
      "anonymous": false,
      "inputs": [
        {
          "indexed": true,
          "internalType": "address",
          "name": "subscriber",
          "type": "address"
        },
        {
          "indexed": false,
          "internalType": "string",
          "name": "tokenURI",
          "type": "string"
        },
        {
          "indexed": false,
          "internalType": "string",
          "name": "channelId",
          "type": "string"
        },
        {
          "indexed": true,
          "internalType": "uint256",
          "name": "tokenId",
          "type": "uint256"
        }
      ],
      "name": "TokenClaim",
      "type": "event"
    },
    {
      "anonymous": false,
      "inputs": [
        {
          "indexed": true,
          "internalType": "address",
          "name": "from",
          "type": "address"
        },
        {
          "indexed": true,
          "internalType": "address",
          "name": "to",
          "type": "address"
        },
        {
          "indexed": true,
          "internalType": "uint256",
          "name": "tokenId",
          "type": "uint256"
        }
      ],
      "name": "Transfer",
      "type": "event"
    },
    {
      "anonymous": false,
      "inputs": [
        {
          "indexed": false,
          "internalType": "address",
          "name": "account",
          "type": "address"
        }
      ],
      "name": "Unpaused",
      "type": "event"
    },
    {
      "inputs": [],
      "name": "DEFAULT_ADMIN_ROLE",
      "outputs": [
        {
          "internalType": "bytes32",
          "name": "",
          "type": "bytes32"
        }
      ],
      "stateMutability": "view",
      "type": "function"
    },
    {
      "inputs": [],
      "name": "MINTER_ROLE",
      "outputs": [
        {
          "internalType": "bytes32",
          "name": "",
          "type": "bytes32"
        }
      ],
      "stateMutability": "view",
      "type": "function"
    },
    {
      "inputs": [],
      "name": "PAUSER_ROLE",
      "outputs": [
        {
          "internalType": "bytes32",
          "name": "",
          "type": "bytes32"
        }
      ],
      "stateMutability": "view",
      "type": "function"
    },
    {
      "inputs": [
        {
          "internalType": "address",
          "name": "",
          "type": "address"
        },
        {
          "internalType": "bytes32",
          "name": "",
          "type": "bytes32"
        }
      ],
      "name": "_ownershipClaimed",
      "outputs": [
        {
          "internalType": "bool",
          "name": "",
          "type": "bool"
        }
      ],
      "stateMutability": "view",
      "type": "function"
    },
    {
      "inputs": [
        {
          "internalType": "address",
          "name": "to",
          "type": "address"
        },
        {
          "internalType": "uint256",
          "name": "tokenId",
          "type": "uint256"
        }
      ],
      "name": "approve",
      "outputs": [],
      "stateMutability": "nonpayable",
      "type": "function"
    },
    {
      "inputs": [
        {
          "internalType": "address",
          "name": "_subscriber",
          "type": "address"
        },
        {
          "internalType": "string",
          "name": "_tokenURI",
          "type": "string"
        },
        {
          "internalType": "string",
          "name": "_channelId",
          "type": "string"
        }
      ],
      "name": "awardItem",
      "outputs": [
        {
          "internalType": "uint256",
          "name": "",
          "type": "uint256"
        },
        {
          "internalType": "string",
          "name": "",
          "type": "string"
        }
      ],
      "stateMutability": "nonpayable",
      "type": "function"
    },
    {
      "inputs": [
        {
          "internalType": "address",
          "name": "owner",
          "type": "address"
        }
      ],
      "name": "balanceOf",
      "outputs": [
        {
          "internalType": "uint256",
          "name": "",
          "type": "uint256"
        }
      ],
      "stateMutability": "view",
      "type": "function"
    },
    {
      "inputs": [
        {
          "internalType": "uint256",
          "name": "tokenId",
          "type": "uint256"
        }
      ],
      "name": "burn",
      "outputs": [],
      "stateMutability": "nonpayable",
      "type": "function"
    },
    {
      "inputs": [
        {
          "internalType": "uint256",
          "name": "tokenId",
          "type": "uint256"
        }
      ],
      "name": "getApproved",
      "outputs": [
        {
          "internalType": "address",
          "name": "",
          "type": "address"
        }
      ],
      "stateMutability": "view",
      "type": "function"
    },
    {
      "inputs": [
        {
          "internalType": "bytes32",
          "name": "role",
          "type": "bytes32"
        }
      ],
      "name": "getRoleAdmin",
      "outputs": [
        {
          "internalType": "bytes32",
          "name": "",
          "type": "bytes32"
        }
      ],
      "stateMutability": "view",
      "type": "function"
    },
    {
      "inputs": [
        {
          "internalType": "bytes32",
          "name": "role",
          "type": "bytes32"
        },
        {
          "internalType": "uint256",
          "name": "index",
          "type": "uint256"
        }
      ],
      "name": "getRoleMember",
      "outputs": [
        {
          "internalType": "address",
          "name": "",
          "type": "address"
        }
      ],
      "stateMutability": "view",
      "type": "function"
    },
    {
      "inputs": [
        {
          "internalType": "bytes32",
          "name": "role",
          "type": "bytes32"
        }
      ],
      "name": "getRoleMemberCount",
      "outputs": [
        {
          "internalType": "uint256",
          "name": "",
          "type": "uint256"
        }
      ],
      "stateMutability": "view",
      "type": "function"
    },
    {
      "inputs": [
        {
          "internalType": "bytes32",
          "name": "role",
          "type": "bytes32"
        },
        {
          "internalType": "address",
          "name": "account",
          "type": "address"
        }
      ],
      "name": "grantRole",
      "outputs": [],
      "stateMutability": "nonpayable",
      "type": "function"
    },
    {
      "inputs": [
        {
          "internalType": "bytes32",
          "name": "role",
          "type": "bytes32"
        },
        {
          "internalType": "address",
          "name": "account",
          "type": "address"
        }
      ],
      "name": "hasRole",
      "outputs": [
        {
          "internalType": "bool",
          "name": "",
          "type": "bool"
        }
      ],
      "stateMutability": "view",
      "type": "function"
    },
    {
      "inputs": [
        {
          "internalType": "address",
          "name": "owner",
          "type": "address"
        },
        {
          "internalType": "address",
          "name": "operator",
          "type": "address"
        }
      ],
      "name": "isApprovedForAll",
      "outputs": [
        {
          "internalType": "bool",
          "name": "",
          "type": "bool"
        }
      ],
      "stateMutability": "view",
      "type": "function"
    },
    {
      "inputs": [
        {
          "internalType": "address",
          "name": "to",
          "type": "address"
        }
      ],
      "name": "mint",
      "outputs": [],
      "stateMutability": "nonpayable",
      "type": "function"
    },
    {
      "inputs": [],
      "name": "name",
      "outputs": [
        {
          "internalType": "string",
          "name": "",
          "type": "string"
        }
      ],
      "stateMutability": "view",
      "type": "function"
    },
    {
      "inputs": [],
      "name": "owner",
      "outputs": [
        {
          "internalType": "address",
          "name": "",
          "type": "address"
        }
      ],
      "stateMutability": "view",
      "type": "function"
    },
    {
      "inputs": [
        {
          "internalType": "uint256",
          "name": "tokenId",
          "type": "uint256"
        }
      ],
      "name": "ownerOf",
      "outputs": [
        {
          "internalType": "address",
          "name": "",
          "type": "address"
        }
      ],
      "stateMutability": "view",
      "type": "function"
    },
    {
      "inputs": [],
      "name": "pause",
      "outputs": [],
      "stateMutability": "nonpayable",
      "type": "function"
    },
    {
      "inputs": [],
      "name": "paused",
      "outputs": [
        {
          "internalType": "bool",
          "name": "",
          "type": "bool"
        }
      ],
      "stateMutability": "view",
      "type": "function"
    },
    {
      "inputs": [],
      "name": "renounceOwnership",
      "outputs": [],
      "stateMutability": "nonpayable",
      "type": "function"
    },
    {
      "inputs": [
        {
          "internalType": "bytes32",
          "name": "role",
          "type": "bytes32"
        },
        {
          "internalType": "address",
          "name": "account",
          "type": "address"
        }
      ],
      "name": "renounceRole",
      "outputs": [],
      "stateMutability": "nonpayable",
      "type": "function"
    },
    {
      "inputs": [
        {
          "internalType": "bytes32",
          "name": "role",
          "type": "bytes32"
        },
        {
          "internalType": "address",
          "name": "account",
          "type": "address"
        }
      ],
      "name": "revokeRole",
      "outputs": [],
      "stateMutability": "nonpayable",
      "type": "function"
    },
    {
      "inputs": [
        {
          "internalType": "address",
          "name": "from",
          "type": "address"
        },
        {
          "internalType": "address",
          "name": "to",
          "type": "address"
        },
        {
          "internalType": "uint256",
          "name": "tokenId",
          "type": "uint256"
        }
      ],
      "name": "safeTransferFrom",
      "outputs": [],
      "stateMutability": "nonpayable",
      "type": "function"
    },
    {
      "inputs": [
        {
          "internalType": "address",
          "name": "from",
          "type": "address"
        },
        {
          "internalType": "address",
          "name": "to",
          "type": "address"
        },
        {
          "internalType": "uint256",
          "name": "tokenId",
          "type": "uint256"
        },
        {
          "internalType": "bytes",
          "name": "_data",
          "type": "bytes"
        }
      ],
      "name": "safeTransferFrom",
      "outputs": [],
      "stateMutability": "nonpayable",
      "type": "function"
    },
    {
      "inputs": [
        {
          "internalType": "address",
          "name": "operator",
          "type": "address"
        },
        {
          "internalType": "bool",
          "name": "approved",
          "type": "bool"
        }
      ],
      "name": "setApprovalForAll",
      "outputs": [],
      "stateMutability": "nonpayable",
      "type": "function"
    },
    {
      "inputs": [
        {
          "internalType": "string",
          "name": "source",
          "type": "string"
        }
      ],
      "name": "stringToBytes32",
      "outputs": [
        {
          "internalType": "bytes32",
          "name": "result",
          "type": "bytes32"
        }
      ],
      "stateMutability": "pure",
      "type": "function"
    },
    {
      "inputs": [
        {
          "internalType": "bytes4",
          "name": "interfaceId",
          "type": "bytes4"
        }
      ],
      "name": "supportsInterface",
      "outputs": [
        {
          "internalType": "bool",
          "name": "",
          "type": "bool"
        }
      ],
      "stateMutability": "view",
      "type": "function"
    },
    {
      "inputs": [],
      "name": "symbol",
      "outputs": [
        {
          "internalType": "string",
          "name": "",
          "type": "string"
        }
      ],
      "stateMutability": "view",
      "type": "function"
    },
    {
      "inputs": [
        {
          "internalType": "uint256",
          "name": "index",
          "type": "uint256"
        }
      ],
      "name": "tokenByIndex",
      "outputs": [
        {
          "internalType": "uint256",
          "name": "",
          "type": "uint256"
        }
      ],
      "stateMutability": "view",
      "type": "function"
    },
    {
      "inputs": [
        {
          "internalType": "address",
          "name": "owner",
          "type": "address"
        },
        {
          "internalType": "uint256",
          "name": "index",
          "type": "uint256"
        }
      ],
      "name": "tokenOfOwnerByIndex",
      "outputs": [
        {
          "internalType": "uint256",
          "name": "",
          "type": "uint256"
        }
      ],
      "stateMutability": "view",
      "type": "function"
    },
    {
      "inputs": [
        {
          "internalType": "uint256",
          "name": "tokenId",
          "type": "uint256"
        }
      ],
      "name": "tokenURI",
      "outputs": [
        {
          "internalType": "string",
          "name": "",
          "type": "string"
        }
      ],
      "stateMutability": "view",
      "type": "function"
    },
    {
      "inputs": [],
      "name": "totalSupply",
      "outputs": [
        {
          "internalType": "uint256",
          "name": "",
          "type": "uint256"
        }
      ],
      "stateMutability": "view",
      "type": "function"
    },
    {
      "inputs": [
        {
          "internalType": "address",
          "name": "from",
          "type": "address"
        },
        {
          "internalType": "address",
          "name": "to",
          "type": "address"
        },
        {
          "internalType": "uint256",
          "name": "tokenId",
          "type": "uint256"
        }
      ],
      "name": "transferFrom",
      "outputs": [],
      "stateMutability": "nonpayable",
      "type": "function"
    },
    {
      "inputs": [
        {
          "internalType": "address",
          "name": "newOwner",
          "type": "address"
        }
      ],
      "name": "transferOwnership",
      "outputs": [],
      "stateMutability": "nonpayable",
      "type": "function"
    },
    {
      "inputs": [],
      "name": "unpause",
      "outputs": [],
      "stateMutability": "nonpayable",
      "type": "function"
    }
  ],
  "transactionHash": "0xadbf849113a06a6edbe10242a330058eadb402bea920393d78944975c62f6b1f",
  "args": [
    "0x00e69aE238c25C5Ad698Bb08355AA5Bc209FE991",
    "YouTube Proof of Sub",
    "YTSUB",
    "youtube-proof-of-sub"
  ],
  "solcInputHash": "b7c5223f19042db925e2df0a562eef0a",
  "bytecode": "0x60806040523480156200001157600080fd5b506040516200366238038062003662833981016040819052620000349162000470565b82828282828160029080519060200190620000519291906200031f565b508051620000679060039060208401906200031f565b50505060006200007c6200018e60201b60201c565b600980546001600160a01b0319166001600160a01b038316908117909155604051919250906000907f8be0079c531659141344cd1fd0a4f28419497f9722a3daafe3b4186f6b6457e0908290a350600e805460ff191690558051620000e99060109060208401906200031f565b50620001006000620000fa6200018e565b62000192565b6200011e60008051602062003642833981519152620000fa6200018e565b6200013c60008051602062003622833981519152620000fa6200018e565b506200014e9150600090508562000192565b62000169600080516020620036428339815191528562000192565b62000184600080516020620036228339815191528562000192565b5050505062000570565b3390565b620001a98282620001d560201b62000e471760201c565b6000828152600160209081526040909120620001d091839062000e55620001e5821b17901c565b505050565b620001e1828262000205565b5050565b6000620001fc836001600160a01b0384166200028f565b90505b92915050565b620002118282620002de565b620001e1576000828152602081815260408083206001600160a01b03851684529091529020805460ff191660011790556200024b6200018e565b6001600160a01b0316816001600160a01b0316837f2f8788117e7eff1d82e926ec794901d17c78024a50270940304540a733656f0d60405160405180910390a45050565b60006200029d838362000307565b620002d557508154600181810184556000848152602080822090930184905584548482528286019093526040902091909155620001ff565b506000620001ff565b6000918252602082815260408084206001600160a01b0393909316845291905290205460ff1690565b60009081526001919091016020526040902054151590565b8280546200032d906200051d565b90600052602060002090601f0160209004810192826200035157600085556200039c565b82601f106200036c57805160ff19168380011785556200039c565b828001600101855582156200039c579182015b828111156200039c5782518255916020019190600101906200037f565b50620003aa929150620003ae565b5090565b5b80821115620003aa5760008155600101620003af565b600082601f830112620003d6578081fd5b81516001600160401b0380821115620003f357620003f36200055a565b6040516020601f8401601f19168201810183811183821017156200041b576200041b6200055a565b604052838252858401810187101562000432578485fd5b8492505b8383101562000455578583018101518284018201529182019162000436565b838311156200046657848185840101525b5095945050505050565b6000806000806080858703121562000486578384fd5b84516001600160a01b03811681146200049d578485fd5b60208601519094506001600160401b0380821115620004ba578485fd5b620004c888838901620003c5565b94506040870151915080821115620004de578384fd5b620004ec88838901620003c5565b9350606087015191508082111562000502578283fd5b506200051187828801620003c5565b91505092959194509250565b6002810460018216806200053257607f821691505b602082108114156200055457634e487b7160e01b600052602260045260246000fd5b50919050565b634e487b7160e01b600052604160045260246000fd5b6130a280620005806000396000f3fe608060405234801561001057600080fd5b50600436106102275760003560e01c806370a0823111610130578063a22cb465116100b8578063d53913931161007c578063d539139314610476578063d547741f1461047e578063e63ab1e914610491578063e985e9c514610499578063f2fde38b146104ac57610227565b8063a22cb46514610417578063b88d4fde1461042a578063c87b56dd1461043d578063ca15c87314610450578063cfb519281461046357610227565b80638da5cb5b116100ff5780638da5cb5b146103d95780639010d07c146103e157806391d14854146103f457806395d89b4114610407578063a217fddf1461040f57610227565b806370a0823114610395578063715018a6146103a85780638456cb59146103b05780638bfaf101146103b857610227565b80632f745c59116101b357806342966c681161018257806342966c68146103415780634f6ccce7146103545780635c975abb146103675780636352211e1461036f5780636a6278421461038257610227565b80632f745c591461030057806336568abe146103135780633f4ba83a1461032657806342842e0e1461032e57610227565b80630de71ac3116101fa5780630de71ac31461029f57806318160ddd146102b257806323b872dd146102c7578063248a9ca3146102da5780632f2ff15d146102ed57610227565b806301ffc9a71461022c57806306fdde0314610255578063081812fc1461026a578063095ea7b31461028a575b600080fd5b61023f61023a36600461249e565b6104bf565b60405161024c919061262a565b60405180910390f35b61025d6104d2565b60405161024c919061263e565b61027d610278366004612443565b610564565b60405161024c91906125d9565b61029d6102983660046123a9565b6105b0565b005b61023f6102ad3660046123a9565b610648565b6102ba610668565b60405161024c9190612635565b61029d6102d53660046122bb565b61066e565b6102ba6102e8366004612443565b6106a6565b61029d6102fb36600461245b565b6106bb565b6102ba61030e3660046123a9565b6106dd565b61029d61032136600461245b565b610732565b61029d610754565b61029d61033c3660046122bb565b6107a6565b61029d61034f366004612443565b6107c1565b6102ba610362366004612443565b6107f4565b61023f61084f565b61027d61037d366004612443565b610858565b61029d61039036600461226f565b61088d565b6102ba6103a336600461226f565b6108f2565b61029d610936565b61029d6109bf565b6103cb6103c63660046123d2565b610a0f565b60405161024c929190612eec565b61027d610b4e565b61027d6103ef36600461247d565b610b5d565b61023f61040236600461245b565b610b7c565b61025d610ba5565b6102ba610bb4565b61029d61042536600461236f565b610bb9565b61029d6104383660046122f6565b610c87565b61025d61044b366004612443565b610cc6565b6102ba61045e366004612443565b610cd1565b6102ba6104713660046124d6565b610ce8565b6102ba610d06565b61029d61048c36600461245b565b610d2a565b6102ba610d34565b61023f6104a7366004612289565b610d58565b61029d6104ba36600461226f565b610d86565b60006104ca82610e6a565b90505b919050565b6060600280546104e190612faa565b80601f016020809104026020016040519081016040528092919081815260200182805461050d90612faa565b801561055a5780601f1061052f5761010080835404028352916020019161055a565b820191906000526020600020905b81548152906001019060200180831161053d57829003601f168201915b5050505050905090565b600061056f82610e75565b6105945760405162461bcd60e51b815260040161058b90612b9b565b60405180910390fd5b506000908152600660205260409020546001600160a01b031690565b60006105bb82610858565b9050806001600160a01b0316836001600160a01b031614156105ef5760405162461bcd60e51b815260040161058b90612cb4565b806001600160a01b0316610601610e92565b6001600160a01b0316148061061d575061061d816104a7610e92565b6106395760405162461bcd60e51b815260040161058b906129d7565b6106438383610e96565b505050565b601260209081526000928352604080842090915290825290205460ff1681565b600c5490565b61067f610679610e92565b82610f04565b61069b5760405162461bcd60e51b815260040161058b90612cf5565b610643838383610f89565b60009081526020819052604090206001015490565b6106c582826110b6565b60008281526001602052604090206106439082610e55565b60006106e8836108f2565b82106107065760405162461bcd60e51b815260040161058b9061276f565b506001600160a01b0382166000908152600a602090815260408083208484529091529020545b92915050565b61073c82826110d5565b60008281526001602052604090206106439082611117565b6107807f65d7a28e3265b37a6474929f336521b332c1681b933f6cb9f3376673440d862a610402610e92565b61079c5760405162461bcd60e51b815260040161058b90612e3f565b6107a461112c565b565b61064383838360405180602001604052806000815250610c87565b6107cc610679610e92565b6107e85760405162461bcd60e51b815260040161058b90612def565b6107f18161119a565b50565b60006107fe610668565b821061081c5760405162461bcd60e51b815260040161058b90612d46565b600c828154811061083d57634e487b7160e01b600052603260045260246000fd5b90600052602060002001549050919050565b600e5460ff1690565b6000818152600460205260408120546001600160a01b0316806104ca5760405162461bcd60e51b815260040161058b90612a7e565b6108b97f9f2df0fed2c77648de5860a4cc508cd0818c85b8b8a1ab4ceeef8d981c8956a6610402610e92565b6108d55760405162461bcd60e51b815260040161058b90612d92565b6108e8816108e3600f6111a3565b6111a7565b6107f1600f611286565b60006001600160a01b03821661091a5760405162461bcd60e51b815260040161058b90612a34565b506001600160a01b031660009081526005602052604090205490565b61093e610e92565b6001600160a01b031661094f610b4e565b6001600160a01b0316146109755760405162461bcd60e51b815260040161058b90612be7565b6009546040516000916001600160a01b0316907f8be0079c531659141344cd1fd0a4f28419497f9722a3daafe3b4186f6b6457e0908390a3600980546001600160a01b0319169055565b6109eb7f65d7a28e3265b37a6474929f336521b332c1681b933f6cb9f3376673440d862a610402610e92565b610a075760405162461bcd60e51b815260040161058b90612889565b6107a461128f565b600060607f9f2df0fed2c77648de5860a4cc508cd0818c85b8b8a1ab4ceeef8d981c8956a6610a4581610a40610e92565b6112ea565b6001600160a01b03861660009081526012602052604081208791879190610a6b83610ce8565b815260208101919091526040016000205460ff1615610a8957600080fd5b610a936011611286565b6000610a9f60116111a3565b9050610aab89826111a7565b610ab5818961134e565b6001600160a01b0389166000908152601260205260408120600191610ad98b610ce8565b815260200190815260200160002060006101000a81548160ff02191690831515021790555080896001600160a01b03167f861920c0affe78fcbc75f830a7fac8ab991a561bacde0c6182f03a5aa653bfec8a8a604051610b3a929190612651565b60405180910390a398969750505050505050565b6009546001600160a01b031690565b6000828152600160205260408120610b759083611392565b9392505050565b6000918252602082815260408084206001600160a01b0393909316845291905290205460ff1690565b6060600380546104e190612faa565b600081565b610bc1610e92565b6001600160a01b0316826001600160a01b03161415610bf25760405162461bcd60e51b815260040161058b9061292a565b8060076000610bff610e92565b6001600160a01b03908116825260208083019390935260409182016000908120918716808252919093529120805460ff191692151592909217909155610c43610e92565b6001600160a01b03167f17307eab39ab6107e8899845ad3d59bd9653f200f220920489ca2b5937696c3183604051610c7b919061262a565b60405180910390a35050565b610c98610c92610e92565b83610f04565b610cb45760405162461bcd60e51b815260040161058b90612cf5565b610cc08484848461139e565b50505050565b60606104ca826113d1565b60008181526001602052604081206104ca906114ea565b80516000908290610cfd5750600090506104cd565b50506020015190565b7f9f2df0fed2c77648de5860a4cc508cd0818c85b8b8a1ab4ceeef8d981c8956a681565b61073c82826114f5565b7f65d7a28e3265b37a6474929f336521b332c1681b933f6cb9f3376673440d862a81565b6001600160a01b03918216600090815260076020908152604080832093909416825291909152205460ff1690565b610d8e610e92565b6001600160a01b0316610d9f610b4e565b6001600160a01b031614610dc55760405162461bcd60e51b815260040161058b90612be7565b6001600160a01b038116610deb5760405162461bcd60e51b815260040161058b9061280c565b6009546040516001600160a01b038084169216907f8be0079c531659141344cd1fd0a4f28419497f9722a3daafe3b4186f6b6457e090600090a3600980546001600160a01b0319166001600160a01b0392909216919091179055565b610e518282611514565b5050565b6000610b75836001600160a01b038416611599565b60006104ca826115e3565b6000908152600460205260409020546001600160a01b0316151590565b3390565b600081815260066020526040902080546001600160a01b0319166001600160a01b0384169081179091558190610ecb82610858565b6001600160a01b03167f8c5be1e5ebec7d5bd14f71427d1e84f3dd0314c0f7b2291e5b200ac8c7c3b92560405160405180910390a45050565b6000610f0f82610e75565b610f2b5760405162461bcd60e51b815260040161058b90612961565b6000610f3683610858565b9050806001600160a01b0316846001600160a01b03161480610f715750836001600160a01b0316610f6684610564565b6001600160a01b0316145b80610f815750610f818185610d58565b949350505050565b826001600160a01b0316610f9c82610858565b6001600160a01b031614610fc25760405162461bcd60e51b815260040161058b90612c1c565b6001600160a01b038216610fe85760405162461bcd60e51b815260040161058b906128e6565b610ff3838383611608565b610ffe600082610e96565b6001600160a01b0383166000908152600560205260408120805460019290611027908490612f50565b90915550506001600160a01b0382166000908152600560205260408120805460019290611055908490612f05565b909155505060008181526004602052604080822080546001600160a01b0319166001600160a01b0386811691821790925591518493918716917fddf252ad1be2c89b69c2b068fc378daa952ba7f163c4a11628f55a4df523b3ef91a4505050565b6110bf826106a6565b6110cb81610a40610e92565b6106438383611514565b6110dd610e92565b6001600160a01b0316816001600160a01b03161461110d5760405162461bcd60e51b815260040161058b90612e9d565b610e518282611613565b6000610b75836001600160a01b038416611696565b61113461084f565b6111505760405162461bcd60e51b815260040161058b90612741565b600e805460ff191690557f5db9ee0a495bf2e6ff9c91a7834c1ba4fdd244a5e8aa4e537bd38aeae4b073aa611183610e92565b60405161119091906125d9565b60405180910390a1565b6107f1816117ad565b5490565b6001600160a01b0382166111cd5760405162461bcd60e51b815260040161058b90612b15565b6111d681610e75565b156111f35760405162461bcd60e51b815260040161058b90612852565b6111ff60008383611608565b6001600160a01b0382166000908152600560205260408120805460019290611228908490612f05565b909155505060008181526004602052604080822080546001600160a01b0319166001600160a01b03861690811790915590518392907fddf252ad1be2c89b69c2b068fc378daa952ba7f163c4a11628f55a4df523b3ef908290a45050565b80546001019055565b61129761084f565b156112b45760405162461bcd60e51b815260040161058b906129ad565b600e805460ff191660011790557f62e78cea01bee320cd4e420270b5ea74000d11b0c9f74754ebdbfc544b05a258611183610e92565b6112f48282610b7c565b610e515761130c816001600160a01b031660146117ed565b6113178360206117ed565b604051602001611328929190612564565b60408051601f198184030181529082905262461bcd60e51b825261058b9160040161263e565b61135782610e75565b6113735760405162461bcd60e51b815260040161058b90612ac7565b60008281526008602090815260409091208251610643928401906120f8565b6000610b75838361199f565b6113a9848484610f89565b6113b5848484846119f8565b610cc05760405162461bcd60e51b815260040161058b906127ba565b60606113dc82610e75565b6113f85760405162461bcd60e51b815260040161058b90612b4a565b6000828152600860205260408120805461141190612faa565b80601f016020809104026020016040519081016040528092919081815260200182805461143d90612faa565b801561148a5780601f1061145f5761010080835404028352916020019161148a565b820191906000526020600020905b81548152906001019060200180831161146d57829003601f168201915b50505050509050600061149b611b13565b90508051600014156114af575090506104cd565b8151156114e15780826040516020016114c9929190612535565b604051602081830303815290604052925050506104cd565b610f8184611b22565b60006104ca826111a3565b6114fe826106a6565b61150a81610a40610e92565b6106438383611613565b61151e8282610b7c565b610e51576000828152602081815260408083206001600160a01b03851684529091529020805460ff19166001179055611555610e92565b6001600160a01b0316816001600160a01b0316837f2f8788117e7eff1d82e926ec794901d17c78024a50270940304540a733656f0d60405160405180910390a45050565b60006115a58383611ba4565b6115db5750815460018181018455600084815260208082209093018490558454848252828601909352604090209190915561072c565b50600061072c565b60006001600160e01b0319821663780e9d6360e01b14806104ca57506104ca82611bbc565b610643838383611bfc565b61161d8282610b7c565b15610e51576000828152602081815260408083206001600160a01b03851684529091529020805460ff19169055611652610e92565b6001600160a01b0316816001600160a01b0316837ff6391f5c32d9c69d2a47ea670b442974b53935d1edc7fd64eb21e047a839171b60405160405180910390a45050565b600081815260018301602052604081205480156117a35760006116ba600183612f50565b85549091506000906116ce90600190612f50565b905060008660000182815481106116f557634e487b7160e01b600052603260045260246000fd5b906000526020600020015490508087600001848154811061172657634e487b7160e01b600052603260045260246000fd5b60009182526020808320909101929092558281526001890190915260409020849055865487908061176757634e487b7160e01b600052603160045260246000fd5b6001900381819060005260206000200160009055905586600101600087815260200190815260200160002060009055600194505050505061072c565b600091505061072c565b6117b681611c07565b600081815260086020526040902080546117cf90612faa565b1590506107f15760008181526008602052604081206107f19161217c565b606060006117fc836002612f31565b611807906002612f05565b67ffffffffffffffff81111561182d57634e487b7160e01b600052604160045260246000fd5b6040519080825280601f01601f191660200182016040528015611857576020820181803683370190505b509050600360fc1b8160008151811061188057634e487b7160e01b600052603260045260246000fd5b60200101906001600160f81b031916908160001a905350600f60fb1b816001815181106118bd57634e487b7160e01b600052603260045260246000fd5b60200101906001600160f81b031916908160001a90535060006118e1846002612f31565b6118ec906001612f05565b90505b6001811115611980576f181899199a1a9b1b9c1cb0b131b232b360811b85600f166010811061192e57634e487b7160e01b600052603260045260246000fd5b1a60f81b82828151811061195257634e487b7160e01b600052603260045260246000fd5b60200101906001600160f81b031916908160001a90535060049490941c9361197981612f93565b90506118ef565b508315610b755760405162461bcd60e51b815260040161058b906126c1565b815460009082106119c25760405162461bcd60e51b815260040161058b9061267f565b8260000182815481106119e557634e487b7160e01b600052603260045260246000fd5b9060005260206000200154905092915050565b6000611a0c846001600160a01b0316611cae565b15611b0857836001600160a01b031663150b7a02611a28610e92565b8786866040518563ffffffff1660e01b8152600401611a4a94939291906125ed565b602060405180830381600087803b158015611a6457600080fd5b505af1925050508015611a94575060408051601f3d908101601f19168201909252611a91918101906124ba565b60015b611aee573d808015611ac2576040519150601f19603f3d011682016040523d82523d6000602084013e611ac7565b606091505b508051611ae65760405162461bcd60e51b815260040161058b906127ba565b805181602001fd5b6001600160e01b031916630a85bd0160e11b149050610f81565b506001949350505050565b6060611b1d611cb4565b905090565b6060611b2d82610e75565b611b495760405162461bcd60e51b815260040161058b90612c65565b6000611b53611b13565b90506000815111611b735760405180602001604052806000815250610b75565b80611b7d84611cc3565b604051602001611b8e929190612535565b6040516020818303038152906040529392505050565b60009081526001919091016020526040902054151590565b60006001600160e01b031982166380ac58cd60e01b1480611bed57506001600160e01b03198216635b5e139f60e01b145b806104ca57506104ca82611dde565b610643838383611e03565b6000611c1282610858565b9050611c2081600084611608565b611c2b600083610e96565b6001600160a01b0381166000908152600560205260408120805460019290611c54908490612f50565b909155505060008281526004602052604080822080546001600160a01b0319169055518391906001600160a01b038416907fddf252ad1be2c89b69c2b068fc378daa952ba7f163c4a11628f55a4df523b3ef908390a45050565b3b151590565b6060601080546104e190612faa565b606081611ce857506040805180820190915260018152600360fc1b60208201526104cd565b8160005b8115611d125780611cfc81612fe5565b9150611d0b9050600a83612f1d565b9150611cec565b60008167ffffffffffffffff811115611d3b57634e487b7160e01b600052604160045260246000fd5b6040519080825280601f01601f191660200182016040528015611d65576020820181803683370190505b5090505b8415610f8157611d7a600183612f50565b9150611d87600a86613000565b611d92906030612f05565b60f81b818381518110611db557634e487b7160e01b600052603260045260246000fd5b60200101906001600160f81b031916908160001a905350611dd7600a86612f1d565b9450611d69565b60006001600160e01b03198216635a05180f60e01b14806104ca57506104ca82611e33565b611e0e838383611e58565b611e1661084f565b156106435760405162461bcd60e51b815260040161058b906126f6565b60006001600160e01b03198216637965db0b60e01b14806104ca57506104ca82611ee1565b611e63838383610643565b6001600160a01b038316611e7f57611e7a81611efa565b611ea2565b816001600160a01b0316836001600160a01b031614611ea257611ea28382611f3e565b6001600160a01b038216611ebe57611eb981611fdb565b610643565b826001600160a01b0316826001600160a01b0316146106435761064382826120b4565b6001600160e01b031981166301ffc9a760e01b14919050565b600c80546000838152600d60205260408120829055600182018355919091527fdf6966c971051c3d54ec59162606531493a51404a002842f56009d7e5cf4a8c70155565b60006001611f4b846108f2565b611f559190612f50565b6000838152600b6020526040902054909150808214611fa8576001600160a01b0384166000908152600a602090815260408083208584528252808320548484528184208190558352600b90915290208190555b506000918252600b602090815260408084208490556001600160a01b039094168352600a81528383209183525290812055565b600c54600090611fed90600190612f50565b6000838152600d6020526040812054600c805493945090928490811061202357634e487b7160e01b600052603260045260246000fd5b9060005260206000200154905080600c838154811061205257634e487b7160e01b600052603260045260246000fd5b6000918252602080832090910192909255828152600d9091526040808220849055858252812055600c80548061209857634e487b7160e01b600052603160045260246000fd5b6001900381819060005260206000200160009055905550505050565b60006120bf836108f2565b6001600160a01b039093166000908152600a602090815260408083208684528252808320859055938252600b9052919091209190915550565b82805461210490612faa565b90600052602060002090601f016020900481019282612126576000855561216c565b82601f1061213f57805160ff191683800117855561216c565b8280016001018555821561216c579182015b8281111561216c578251825591602001919060010190612151565b506121789291506121b4565b5090565b50805461218890612faa565b6000825580601f1061219a57506107f1565b601f0160209004906000526020600020908101906107f191905b5b8082111561217857600081556001016121b5565b600067ffffffffffffffff808411156121e4576121e4613040565b604051601f8501601f19168101602001828111828210171561220857612208613040565b60405284815291508183850186101561222057600080fd5b8484602083013760006020868301015250509392505050565b80356001600160a01b03811681146104cd57600080fd5b600082601f830112612260578081fd5b610b75838335602085016121c9565b600060208284031215612280578081fd5b610b7582612239565b6000806040838503121561229b578081fd5b6122a483612239565b91506122b260208401612239565b90509250929050565b6000806000606084860312156122cf578081fd5b6122d884612239565b92506122e660208501612239565b9150604084013590509250925092565b6000806000806080858703121561230b578081fd5b61231485612239565b935061232260208601612239565b925060408501359150606085013567ffffffffffffffff811115612344578182fd5b8501601f81018713612354578182fd5b612363878235602084016121c9565b91505092959194509250565b60008060408385031215612381578182fd5b61238a83612239565b91506020830135801515811461239e578182fd5b809150509250929050565b600080604083850312156123bb578182fd5b6123c483612239565b946020939093013593505050565b6000806000606084860312156123e6578283fd5b6123ef84612239565b9250602084013567ffffffffffffffff8082111561240b578384fd5b61241787838801612250565b9350604086013591508082111561242c578283fd5b5061243986828701612250565b9150509250925092565b600060208284031215612454578081fd5b5035919050565b6000806040838503121561246d578182fd5b823591506122b260208401612239565b6000806040838503121561248f578182fd5b50508035926020909101359150565b6000602082840312156124af578081fd5b8135610b7581613056565b6000602082840312156124cb578081fd5b8151610b7581613056565b6000602082840312156124e7578081fd5b813567ffffffffffffffff8111156124fd578182fd5b610f8184828501612250565b60008151808452612521816020860160208601612f67565b601f01601f19169290920160200192915050565b60008351612547818460208801612f67565b83519083019061255b818360208801612f67565b01949350505050565b60007f416363657373436f6e74726f6c3a206163636f756e74200000000000000000008252835161259c816017850160208801612f67565b7001034b99036b4b9b9b4b733903937b6329607d1b60179184019182015283516125cd816028840160208801612f67565b01602801949350505050565b6001600160a01b0391909116815260200190565b6001600160a01b038581168252841660208201526040810183905260806060820181905260009061262090830184612509565b9695505050505050565b901515815260200190565b90815260200190565b600060208252610b756020830184612509565b6000604082526126646040830185612509565b82810360208401526126768185612509565b95945050505050565b60208082526022908201527f456e756d657261626c655365743a20696e646578206f7574206f6620626f756e604082015261647360f01b606082015260800190565b6020808252818101527f537472696e67733a20686578206c656e67746820696e73756666696369656e74604082015260600190565b6020808252602b908201527f4552433732315061757361626c653a20746f6b656e207472616e73666572207760408201526a1a1a5b19481c185d5cd95960aa1b606082015260800190565b60208082526014908201527314185d5cd8589b194e881b9bdd081c185d5cd95960621b604082015260600190565b6020808252602b908201527f455243373231456e756d657261626c653a206f776e657220696e646578206f7560408201526a74206f6620626f756e647360a81b606082015260800190565b60208082526032908201527f4552433732313a207472616e7366657220746f206e6f6e20455243373231526560408201527131b2b4bb32b91034b6b83632b6b2b73a32b960711b606082015260800190565b60208082526026908201527f4f776e61626c653a206e6577206f776e657220697320746865207a65726f206160408201526564647265737360d01b606082015260800190565b6020808252601c908201527f4552433732313a20746f6b656e20616c7265616479206d696e74656400000000604082015260600190565b6020808252603e908201527f4552433732315072657365744d696e7465725061757365724175746f49643a2060408201527f6d75737420686176652070617573657220726f6c6520746f2070617573650000606082015260800190565b60208082526024908201527f4552433732313a207472616e7366657220746f20746865207a65726f206164646040820152637265737360e01b606082015260800190565b60208082526019908201527f4552433732313a20617070726f766520746f2063616c6c657200000000000000604082015260600190565b6020808252602c908201527f4552433732313a206f70657261746f7220717565727920666f72206e6f6e657860408201526b34b9ba32b73a103a37b5b2b760a11b606082015260800190565b60208082526010908201526f14185d5cd8589b194e881c185d5cd95960821b604082015260600190565b60208082526038908201527f4552433732313a20617070726f76652063616c6c6572206973206e6f74206f7760408201527f6e6572206e6f7220617070726f76656420666f7220616c6c0000000000000000606082015260800190565b6020808252602a908201527f4552433732313a2062616c616e636520717565727920666f7220746865207a65604082015269726f206164647265737360b01b606082015260800190565b60208082526029908201527f4552433732313a206f776e657220717565727920666f72206e6f6e657869737460408201526832b73a103a37b5b2b760b91b606082015260800190565b6020808252602e908201527f45524337323155524953746f726167653a2055524920736574206f66206e6f6e60408201526d32bc34b9ba32b73a103a37b5b2b760911b606082015260800190565b6020808252818101527f4552433732313a206d696e7420746f20746865207a65726f2061646472657373604082015260600190565b60208082526031908201527f45524337323155524953746f726167653a2055524920717565727920666f72206040820152703737b732bc34b9ba32b73a103a37b5b2b760791b606082015260800190565b6020808252602c908201527f4552433732313a20617070726f76656420717565727920666f72206e6f6e657860408201526b34b9ba32b73a103a37b5b2b760a11b606082015260800190565b6020808252818101527f4f776e61626c653a2063616c6c6572206973206e6f7420746865206f776e6572604082015260600190565b60208082526029908201527f4552433732313a207472616e73666572206f6620746f6b656e2074686174206960408201526839903737ba1037bbb760b91b606082015260800190565b6020808252602f908201527f4552433732314d657461646174613a2055524920717565727920666f72206e6f60408201526e3732bc34b9ba32b73a103a37b5b2b760891b606082015260800190565b60208082526021908201527f4552433732313a20617070726f76616c20746f2063757272656e74206f776e656040820152603960f91b606082015260800190565b60208082526031908201527f4552433732313a207472616e736665722063616c6c6572206973206e6f74206f6040820152701ddb995c881b9bdc88185c1c1c9bdd9959607a1b606082015260800190565b6020808252602c908201527f455243373231456e756d657261626c653a20676c6f62616c20696e646578206f60408201526b7574206f6620626f756e647360a01b606082015260800190565b6020808252603d908201527f4552433732315072657365744d696e7465725061757365724175746f49643a2060408201527f6d7573742068617665206d696e74657220726f6c6520746f206d696e74000000606082015260800190565b60208082526030908201527f4552433732314275726e61626c653a2063616c6c6572206973206e6f74206f7760408201526f1b995c881b9bdc88185c1c1c9bdd995960821b606082015260800190565b602080825260409082018190527f4552433732315072657365744d696e7465725061757365724175746f49643a20908201527f6d75737420686176652070617573657220726f6c6520746f20756e7061757365606082015260800190565b6020808252602f908201527f416363657373436f6e74726f6c3a2063616e206f6e6c792072656e6f756e636560408201526e103937b632b9903337b91039b2b63360891b606082015260800190565b600083825260406020830152610f816040830184612509565b60008219821115612f1857612f18613014565b500190565b600082612f2c57612f2c61302a565b500490565b6000816000190483118215151615612f4b57612f4b613014565b500290565b600082821015612f6257612f62613014565b500390565b60005b83811015612f82578181015183820152602001612f6a565b83811115610cc05750506000910152565b600081612fa257612fa2613014565b506000190190565b600281046001821680612fbe57607f821691505b60208210811415612fdf57634e487b7160e01b600052602260045260246000fd5b50919050565b6000600019821415612ff957612ff9613014565b5060010190565b60008261300f5761300f61302a565b500690565b634e487b7160e01b600052601160045260246000fd5b634e487b7160e01b600052601260045260246000fd5b634e487b7160e01b600052604160045260246000fd5b6001600160e01b0319811681146107f157600080fdfea2646970667358221220273bc0f14f3d7385c51f442928adabf93114ff41620280cfa8e848ecfc35ed9464736f6c6343000800003365d7a28e3265b37a6474929f336521b332c1681b933f6cb9f3376673440d862a9f2df0fed2c77648de5860a4cc508cd0818c85b8b8a1ab4ceeef8d981c8956a6",
  "devdoc": {
    "kind": "dev",
    "methods": {
      "approve(address,uint256)": {
        "details": "See {IERC721-approve}."
      },
      "balanceOf(address)": {
        "details": "See {IERC721-balanceOf}."
      },
      "burn(uint256)": {
        "details": "Burns `tokenId`. See {ERC721-_burn}. Requirements: - The caller must own `tokenId` or be an approved operator."
      },
      "getApproved(uint256)": {
        "details": "See {IERC721-getApproved}."
      },
      "getRoleAdmin(bytes32)": {
        "details": "Returns the admin role that controls `role`. See {grantRole} and {revokeRole}. To change a role's admin, use {_setRoleAdmin}."
      },
      "getRoleMember(bytes32,uint256)": {
        "details": "Returns one of the accounts that have `role`. `index` must be a value between 0 and {getRoleMemberCount}, non-inclusive. Role bearers are not sorted in any particular way, and their ordering may change at any point. WARNING: When using {getRoleMember} and {getRoleMemberCount}, make sure you perform all queries on the same block. See the following https://forum.openzeppelin.com/t/iterating-over-elements-on-enumerableset-in-openzeppelin-contracts/2296[forum post] for more information."
      },
      "getRoleMemberCount(bytes32)": {
        "details": "Returns the number of accounts that have `role`. Can be used together with {getRoleMember} to enumerate all bearers of a role."
      },
      "grantRole(bytes32,address)": {
        "details": "Overload {grantRole} to track enumerable memberships"
      },
      "hasRole(bytes32,address)": {
        "details": "Returns `true` if `account` has been granted `role`."
      },
      "isApprovedForAll(address,address)": {
        "details": "See {IERC721-isApprovedForAll}."
      },
      "mint(address)": {
        "details": "Creates a new token for `to`. Its token ID will be automatically assigned (and available on the emitted {IERC721-Transfer} event), and the token URI autogenerated based on the base URI passed at construction. See {ERC721-_mint}. Requirements: - the caller must have the `MINTER_ROLE`."
      },
      "name()": {
        "details": "See {IERC721Metadata-name}."
      },
      "owner()": {
        "details": "Returns the address of the current owner."
      },
      "ownerOf(uint256)": {
        "details": "See {IERC721-ownerOf}."
      },
      "pause()": {
        "details": "Pauses all token transfers. See {ERC721Pausable} and {Pausable-_pause}. Requirements: - the caller must have the `PAUSER_ROLE`."
      },
      "paused()": {
        "details": "Returns true if the contract is paused, and false otherwise."
      },
      "renounceOwnership()": {
        "details": "Leaves the contract without owner. It will not be possible to call `onlyOwner` functions anymore. Can only be called by the current owner. NOTE: Renouncing ownership will leave the contract without an owner, thereby removing any functionality that is only available to the owner."
      },
      "renounceRole(bytes32,address)": {
        "details": "Overload {renounceRole} to track enumerable memberships"
      },
      "revokeRole(bytes32,address)": {
        "details": "Overload {revokeRole} to track enumerable memberships"
      },
      "safeTransferFrom(address,address,uint256)": {
        "details": "See {IERC721-safeTransferFrom}."
      },
      "safeTransferFrom(address,address,uint256,bytes)": {
        "details": "See {IERC721-safeTransferFrom}."
      },
      "setApprovalForAll(address,bool)": {
        "details": "See {IERC721-setApprovalForAll}."
      },
      "symbol()": {
        "details": "See {IERC721Metadata-symbol}."
      },
      "tokenByIndex(uint256)": {
        "details": "See {IERC721Enumerable-tokenByIndex}."
      },
      "tokenOfOwnerByIndex(address,uint256)": {
        "details": "See {IERC721Enumerable-tokenOfOwnerByIndex}."
      },
      "totalSupply()": {
        "details": "See {IERC721Enumerable-totalSupply}."
      },
      "transferFrom(address,address,uint256)": {
        "details": "See {IERC721-transferFrom}."
      },
      "transferOwnership(address)": {
        "details": "Transfers ownership of the contract to a new account (`newOwner`). Can only be called by the current owner."
      },
      "unpause()": {
        "details": "Unpauses all token transfers. See {ERC721Pausable} and {Pausable-_unpause}. Requirements: - the caller must have the `PAUSER_ROLE`."
      }
    },
    "version": 1
  },
  "userdoc": {
    "kind": "user",
    "methods": {},
    "version": 1
  },
  "storageLayout": {
    "storage": [
      {
        "astId": 62,
        "contract": "contracts/ProofOfSub.sol:ProofOfSub",
        "label": "_roles",
        "offset": 0,
        "slot": "0",
        "type": "t_mapping(t_bytes32,t_struct(RoleData)57_storage)"
      },
      {
        "astId": 403,
        "contract": "contracts/ProofOfSub.sol:ProofOfSub",
        "label": "_roleMembers",
        "offset": 0,
        "slot": "1",
        "type": "t_mapping(t_bytes32,t_struct(AddressSet)3395_storage)"
      },
      {
        "astId": 785,
        "contract": "contracts/ProofOfSub.sol:ProofOfSub",
        "label": "_name",
        "offset": 0,
        "slot": "2",
        "type": "t_string_storage"
      },
      {
        "astId": 787,
        "contract": "contracts/ProofOfSub.sol:ProofOfSub",
        "label": "_symbol",
        "offset": 0,
        "slot": "3",
        "type": "t_string_storage"
      },
      {
        "astId": 791,
        "contract": "contracts/ProofOfSub.sol:ProofOfSub",
        "label": "_owners",
        "offset": 0,
        "slot": "4",
        "type": "t_mapping(t_uint256,t_address)"
      },
      {
        "astId": 795,
        "contract": "contracts/ProofOfSub.sol:ProofOfSub",
        "label": "_balances",
        "offset": 0,
        "slot": "5",
        "type": "t_mapping(t_address,t_uint256)"
      },
      {
        "astId": 799,
        "contract": "contracts/ProofOfSub.sol:ProofOfSub",
        "label": "_tokenApprovals",
        "offset": 0,
        "slot": "6",
        "type": "t_mapping(t_uint256,t_address)"
      },
      {
        "astId": 805,
        "contract": "contracts/ProofOfSub.sol:ProofOfSub",
        "label": "_operatorApprovals",
        "offset": 0,
        "slot": "7",
        "type": "t_mapping(t_address,t_mapping(t_address,t_bool))"
      },
      {
        "astId": 2129,
        "contract": "contracts/ProofOfSub.sol:ProofOfSub",
        "label": "_tokenURIs",
        "offset": 0,
        "slot": "8",
        "type": "t_mapping(t_uint256,t_string_storage)"
      },
      {
        "astId": 565,
        "contract": "contracts/ProofOfSub.sol:ProofOfSub",
        "label": "_owner",
        "offset": 0,
        "slot": "9",
        "type": "t_address"
      },
      {
        "astId": 1756,
        "contract": "contracts/ProofOfSub.sol:ProofOfSub",
        "label": "_ownedTokens",
        "offset": 0,
        "slot": "10",
        "type": "t_mapping(t_address,t_mapping(t_uint256,t_uint256))"
      },
      {
        "astId": 1760,
        "contract": "contracts/ProofOfSub.sol:ProofOfSub",
        "label": "_ownedTokensIndex",
        "offset": 0,
        "slot": "11",
        "type": "t_mapping(t_uint256,t_uint256)"
      },
      {
        "astId": 1763,
        "contract": "contracts/ProofOfSub.sol:ProofOfSub",
        "label": "_allTokens",
        "offset": 0,
        "slot": "12",
        "type": "t_array(t_uint256)dyn_storage"
      },
      {
        "astId": 1767,
        "contract": "contracts/ProofOfSub.sol:ProofOfSub",
        "label": "_allTokensIndex",
        "offset": 0,
        "slot": "13",
        "type": "t_mapping(t_uint256,t_uint256)"
      },
      {
        "astId": 685,
        "contract": "contracts/ProofOfSub.sol:ProofOfSub",
        "label": "_paused",
        "offset": 0,
        "slot": "14",
        "type": "t_bool"
      },
      {
        "astId": 2339,
        "contract": "contracts/ProofOfSub.sol:ProofOfSub",
        "label": "_tokenIdTracker",
        "offset": 0,
        "slot": "15",
        "type": "t_struct(Counter)2815_storage"
      },
      {
        "astId": 2341,
        "contract": "contracts/ProofOfSub.sol:ProofOfSub",
        "label": "_baseTokenURI",
        "offset": 0,
        "slot": "16",
        "type": "t_string_storage"
      },
      {
        "astId": 3642,
        "contract": "contracts/ProofOfSub.sol:ProofOfSub",
        "label": "_tokenIds",
        "offset": 0,
        "slot": "17",
        "type": "t_struct(Counter)2815_storage"
      },
      {
        "astId": 3648,
        "contract": "contracts/ProofOfSub.sol:ProofOfSub",
        "label": "_ownershipClaimed",
        "offset": 0,
        "slot": "18",
        "type": "t_mapping(t_address,t_mapping(t_bytes32,t_bool))"
      }
    ],
    "types": {
      "t_address": {
        "encoding": "inplace",
        "label": "address",
        "numberOfBytes": "20"
      },
      "t_array(t_bytes32)dyn_storage": {
        "base": "t_bytes32",
        "encoding": "dynamic_array",
        "label": "bytes32[]",
        "numberOfBytes": "32"
      },
      "t_array(t_uint256)dyn_storage": {
        "base": "t_uint256",
        "encoding": "dynamic_array",
        "label": "uint256[]",
        "numberOfBytes": "32"
      },
      "t_bool": {
        "encoding": "inplace",
        "label": "bool",
        "numberOfBytes": "1"
      },
      "t_bytes32": {
        "encoding": "inplace",
        "label": "bytes32",
        "numberOfBytes": "32"
      },
      "t_mapping(t_address,t_bool)": {
        "encoding": "mapping",
        "key": "t_address",
        "label": "mapping(address => bool)",
        "numberOfBytes": "32",
        "value": "t_bool"
      },
      "t_mapping(t_address,t_mapping(t_address,t_bool))": {
        "encoding": "mapping",
        "key": "t_address",
        "label": "mapping(address => mapping(address => bool))",
        "numberOfBytes": "32",
        "value": "t_mapping(t_address,t_bool)"
      },
      "t_mapping(t_address,t_mapping(t_bytes32,t_bool))": {
        "encoding": "mapping",
        "key": "t_address",
        "label": "mapping(address => mapping(bytes32 => bool))",
        "numberOfBytes": "32",
        "value": "t_mapping(t_bytes32,t_bool)"
      },
      "t_mapping(t_address,t_mapping(t_uint256,t_uint256))": {
        "encoding": "mapping",
        "key": "t_address",
        "label": "mapping(address => mapping(uint256 => uint256))",
        "numberOfBytes": "32",
        "value": "t_mapping(t_uint256,t_uint256)"
      },
      "t_mapping(t_address,t_uint256)": {
        "encoding": "mapping",
        "key": "t_address",
        "label": "mapping(address => uint256)",
        "numberOfBytes": "32",
        "value": "t_uint256"
      },
      "t_mapping(t_bytes32,t_bool)": {
        "encoding": "mapping",
        "key": "t_bytes32",
        "label": "mapping(bytes32 => bool)",
        "numberOfBytes": "32",
        "value": "t_bool"
      },
      "t_mapping(t_bytes32,t_struct(AddressSet)3395_storage)": {
        "encoding": "mapping",
        "key": "t_bytes32",
        "label": "mapping(bytes32 => struct EnumerableSet.AddressSet)",
        "numberOfBytes": "32",
        "value": "t_struct(AddressSet)3395_storage"
      },
      "t_mapping(t_bytes32,t_struct(RoleData)57_storage)": {
        "encoding": "mapping",
        "key": "t_bytes32",
        "label": "mapping(bytes32 => struct AccessControl.RoleData)",
        "numberOfBytes": "32",
        "value": "t_struct(RoleData)57_storage"
      },
      "t_mapping(t_bytes32,t_uint256)": {
        "encoding": "mapping",
        "key": "t_bytes32",
        "label": "mapping(bytes32 => uint256)",
        "numberOfBytes": "32",
        "value": "t_uint256"
      },
      "t_mapping(t_uint256,t_address)": {
        "encoding": "mapping",
        "key": "t_uint256",
        "label": "mapping(uint256 => address)",
        "numberOfBytes": "32",
        "value": "t_address"
      },
      "t_mapping(t_uint256,t_string_storage)": {
        "encoding": "mapping",
        "key": "t_uint256",
        "label": "mapping(uint256 => string)",
        "numberOfBytes": "32",
        "value": "t_string_storage"
      },
      "t_mapping(t_uint256,t_uint256)": {
        "encoding": "mapping",
        "key": "t_uint256",
        "label": "mapping(uint256 => uint256)",
        "numberOfBytes": "32",
        "value": "t_uint256"
      },
      "t_string_storage": {
        "encoding": "bytes",
        "label": "string",
        "numberOfBytes": "32"
      },
      "t_struct(AddressSet)3395_storage": {
        "encoding": "inplace",
        "label": "struct EnumerableSet.AddressSet",
        "members": [
          {
            "astId": 3394,
            "contract": "contracts/ProofOfSub.sol:ProofOfSub",
            "label": "_inner",
            "offset": 0,
            "slot": "0",
            "type": "t_struct(Set)3120_storage"
          }
        ],
        "numberOfBytes": "64"
      },
      "t_struct(Counter)2815_storage": {
        "encoding": "inplace",
        "label": "struct Counters.Counter",
        "members": [
          {
            "astId": 2814,
            "contract": "contracts/ProofOfSub.sol:ProofOfSub",
            "label": "_value",
            "offset": 0,
            "slot": "0",
            "type": "t_uint256"
          }
        ],
        "numberOfBytes": "32"
      },
      "t_struct(RoleData)57_storage": {
        "encoding": "inplace",
        "label": "struct AccessControl.RoleData",
        "members": [
          {
            "astId": 54,
            "contract": "contracts/ProofOfSub.sol:ProofOfSub",
            "label": "members",
            "offset": 0,
            "slot": "0",
            "type": "t_mapping(t_address,t_bool)"
          },
          {
            "astId": 56,
            "contract": "contracts/ProofOfSub.sol:ProofOfSub",
            "label": "adminRole",
            "offset": 0,
            "slot": "1",
            "type": "t_bytes32"
          }
        ],
        "numberOfBytes": "64"
      },
      "t_struct(Set)3120_storage": {
        "encoding": "inplace",
        "label": "struct EnumerableSet.Set",
        "members": [
          {
            "astId": 3115,
            "contract": "contracts/ProofOfSub.sol:ProofOfSub",
            "label": "_values",
            "offset": 0,
            "slot": "0",
            "type": "t_array(t_bytes32)dyn_storage"
          },
          {
            "astId": 3119,
            "contract": "contracts/ProofOfSub.sol:ProofOfSub",
            "label": "_indexes",
            "offset": 0,
            "slot": "1",
            "type": "t_mapping(t_bytes32,t_uint256)"
          }
        ],
        "numberOfBytes": "64"
      },
      "t_uint256": {
        "encoding": "inplace",
        "label": "uint256",
        "numberOfBytes": "32"
      }
    }
  }
}